S01400004C6162324B5069657472616B2E73726563B4
S11300000C942A000C9447000C9447000C9447006D
S11300100C9447000C9447000C9447000C94470040
S11300200C9447000C9447000C9447000C94470030
S11300300C9447000C9447000C9447000C94470020
S11300400C9447000C9447000C9447000C94470010
S11300500C94470011241FBECFE5D8E0DEBFCDBF0E
S113006010E0A0E6B0E0E2EBF2E002C005900D92F1
S1130070A836B107D9F720E0A8E6B0E001C01D9288
S1130080AC36B207E1F70E948A000C9457010C9435
S11300900000FC010FB6F89460916800709169004B
S11300A080916A0090916B000FBE309721F06083BD
S11300B07183828393830895CF93C0E027C00E9405
S11300C0E40081709078992324F401978E6F9F6FD8
S11300D00196FC01EC59FF4F308120E014C081E00F
S11300E090E00C2E02C0880F991F0A94E2F78095C5
S11300F088BB832F80958BBB83EF91E00197F1F749
S113010000C000002F5F2A3F50F3CF5FC430B8F225
S1130110CF9108958FEF8ABB8FE087BB80E090E09A
S11301200E944900CB010E94E9000E945C00FDCFBF
S11301308F929F92AF92BF92CF92DF92EF92FF92F3
S1130140CF93DF93EC01688179818A819B8161156A
S113015071058105910521F464E279ED8BE597E061
S11301602DE133EF41E050E00E94F40049015A01CF
S11301709B01AC01A7EAB1E40E9413016B017C016D
S1130180ACEEB4EFA50194010E942101DC01CB0186
S11301908C0D9D1DAE1DBF1DB7FF03C00197A109A6
S11301A0B04888839983AA83BB839F77DF91CF91DB
S11301B0FF90EF90DF90CF90BF90AF909F908F9083
S11301C008950E949800089580E690E00E949800A7
S11301D00895A0E0B0E08093600090936100A09344
S11301E06200B09363000895052E97FB1EF40094FB
S11301F00E940B0157FD07D00E94260107FC03D083
S11302004EF40C940B0150954095309521953F4F39
S11302104F4F5F4F089590958095709561957F4FEE
S11302208F4F9F4F08950E944801A59F900DB49F42
S1130230900DA49F800D911D11240895B7FF0C9477
S113024013010E941301821B930B0895A1E21A2E3D
S1130250AA1BBB1BFD010DC0AA1FBB1FEE1FFF1F66
S1130260A217B307E407F50720F0A21BB30BE40BB6
S1130270F50B661F771F881F991F1A9469F76095FD
S11302807095809590959B01AC01BD01CF010895B7
S1130290A29FB001B39FC001A39F700D811D1124C3
S11302A0911DB29F700D811D1124911D0895F89424
S10502B0FFCF7A
S10B02B201000000C63A9EF2AF
S9030000FC
